S01E000052696E674C69676874436F6E74726F6C6C65724170702E7372656339
S214000A00A9C0A3C0A2C0A1C0A0C09FC09EC09DC0D8
S214000A109CC09BC09AC099C098C097C096C095C00D
S214000A2094C093C092C091C090C08FC08EC08DC03D
S214000A308CC08BC08AC089C088C087C086C092C060
S214000A40CAC021E0A0E8B1E001C01D92A438B207F8
S214000A50E1F780E18093600088E084B984E985B995
S214000A6010928301109282011092810110928001EF
S214000A70089580E688B984E089B92E9A2C9BFECF2B
S214000A802C9A95E120E030E02E9A2C9BFECF87B181
S214000A90280F311D2C9A9150B9F7C901829592956D
S214000AA0907F9827807F982708959FEF980F9C3017
S214000AB008F5DA989BB397709BBBD99824E09BB354
S214000AC097709BBB80FF02C0D99A01C0D9988695C3
S214000AD0DB9A2150A1F798E08BB387708BBB662317
S214000AE014F4D99A01C0D998660FDB9A9150A1F7F1
S214000AF0DA9ADA980895CF93DF93EC01688181E063
S214000B00D4DF698182E0D1DF6A8183E0CEDF6B814A
S214000B1084E0CBDF6C8185E0C8DF6D8186E0C5DFD1
S214000B206E8187E0C2DF6F8188E0BFDF688589E07D
S214000B30BCDF69858AE0B9DF6A858BE0B6DF6B8546
S214000B408CE0B3DFDF91CF910895FFCFE0E2F0E0D5
S214000B500995089580910301833009F47ADF809126
S214000B60030108950F931F93CF93DF9300D000D017
S214000B70CDB7DEB7182F022F8D3018F4813020F055
S214000B8008C08E3061F011C0CB01B5DF40E080E0D8
S214000B900EC0FB01608189DF40E080E008C069DFAD
S214000BA099838A8342E080E002C040E081E0011140
S214000BB009C021E0811101C020E0BE016F5F7F4FB8
S214000BC0812FC4DF0F900F900F900F90DF91CF9181
S20C000BD01F910F91089508958E
S2088001000000000076
S804000A00F1
