S012000074696E796C6F616465722E73726563D7
S21400000066C4FEC4FEC4FEC4FEC4FEC4FEC4FEC473
S214000010FEC4FEC4FEC428C4FEC4FEC4FEC4FEC4A1
S21400002086C0FEC4FEC4FEC4FEC4FEC462C1FEC4D6
S21400003031C2FEC4FEC4FEC4FEC4FEC4FEC400003C
S214000040C4C153C35BC37DC3A1C3A2C3EDC3ECC38A
S214000050EBC3D1C3D2C3D3C3E7C3E6C3E5C3E4C38C
S214000060D7C321E0A4E0B1E001C01D92A033B207DF
S214000070E1F7FC014FEF5FEF6150E0F0219125279B
S214000080322F32953F70922F9327292F30E0542F2E
S214000090442742275327C901982F88279295907F97
S2140000A048275927A5E0220F331FAA95E1F74227D4
S2140000B05327E2CFCA0108958FEF9FEF90930C016C
S2140000C080930B011092080108951FBC1092CA007D
S2140000D01EBC83E88093C90012BC1092C800109220
S2140000E0C1001092C00080E281BBE6CF80912D0156
S2140000F081111CC080910B0190910C01880F991FF3
S214000100880F991F019790938200809381008FEF4C
S2140001109FEF90930C0180930B01CEDF80918500BA
S21400012080698093850081E080932D0108951F9259
S2140001300F920FB60F9211242F933F934F935F9316
S2140001408F939F932091C0003091C1004091C000D2
S2140001505091C10080910401909105018417950784
S21400016078F4A901481B590BCA0140910B01509124
S2140001700C018417950720F490930C0180930B01D3
S214000180809108018F5F80930801309305012093CA
S21400019004019F918F915F914F913F912F910F9006
S2140001A00FBE0F901F90189510922D011092070108
S2140001B010922C011092090110920A0110920D0162
S2140001C01092060186E380938400E0E8F0E08081E8
S2140001D088E480938500808181E080936500E6E86E
S2140001E0F0E080818260808370CF80912D0188232B
S2140001F051F180910D018B3048F081E080932D0104
S21400020010920D011092070110920A0180912D01A3
S214000210813029F080910D018F5F80930D018091D0
S2140002200601811102C0DE9A05C080910601813068
S21400023009F4DE988091060182302CF48091060144
S2140002408F5F809306010895CF93809108018531D2
S21400025008F04CDF80912D01853009F048C0C09130
S2140002600A01C1113FC0809107018530D8F1209165
S21400027007012150223048F180910F01882329F18F
S214000280E22FF0E0E25FFE4F908191111EC0815098
S214000290E92FF0E0DF01A25FBE4FE05FFE4F308146
S2140002A03C933081891305C0332371F0830F1C9271
S2140002B002C0332351F031E0390F231710F0932F8B
S2140002C0E7CFCEEFC90F01C0C82F6C2F8EE091E0AC
S2140002D0D0DE892B39F480910E014DEF4C0F6FE084
S2140002E071E0C0D110920A0181E080932D01CF9178
S2140002F008951F920F920FB60F9211248F939F931B
S214000300EF93FF9310920D0180912D01813029F417
S21400031084E080932D011092070180912D01843096
S21400032031F580918600847129F080910A018F5FF3
S21400033080930A0180918000882321F0853519F486
S21400034080E001C085E5E0910701F0E0E25FFE4F46
S2140003508083909107019F5F90930701811107C0EA
S21400036080910701823018F085E080932D01FF917F
S214000370EF919F918F910F900FBE0F901F90189541
S21400038090912C01809107018917A8F4E09107014C
S214000390F0E0E25FFE4F8081882321F0853519F476
S2140003A080E001C085E580938000809107018F5F23
S2140003B08093070108958091850080698093850069
S2140003C081E080932D01DD9808950F931F93CF93BE
S2140003D0C42FDD9A92E090932D01909185009F7630
S2140003E09093850010920E0180931001462FFB011A
S2140003F083E090E03E2F341B3C1738F43191DC014B
S214000400A25FBE4F3C930196F5CF0C2F10E0211152
S2140004100EC061E06C0F80E191E02BDEF801EF5E2C
S214000420FE4F9083F801EE5EFE4F808308C0F80111
S214000430EF5EFE4F1082F801EE5EFE4F1082CD5F3B
S21400044081E090E04C2F50E0282F30E0F901E15F8A
S214000450FE4F421753076CF02081211108C0E92F88
S214000460F0E0E15FFE4F282F291B2083982F8F5F37
S214000470EBCFA92FB0E0A15FBE4F282F291B2C93EE
S21400048010828E5F80932C0110920701CF911F91EE
S2140004900F9176CF1F920F920FB60F9211242F93C3
S2140004A03F934F935F936F937F938F939F93AF93F7
S2140004B0BF93EF93FF9310920D0162DFFF91EF91D0
S2140004C0BF91AF919F918F917F916F915F914F9167
S2140004D03F912F910F900FBE0F901F901895962763
S2140004E0292F22952F709227692F70E020E030E0A8
S2140004F0382F26273727CB01982F88279295907F6D
S21400050028273927CB0155E0880F991F5A95E1F720
S214000510822793270895E0E0F5E0099414E006E0CA
S214000520EE24EA948FE1F82E92E0D92E23E0C22E34
S2140005308BDEA89580910301833051F138F4813029
S21400054061F58FEF9FEFC0E0DAE008C0843021F15C
S214000550853019F5E0DF009303011FC0FE016491AA
S214000560BEDF2196CE3FFFE1DF07C1F79093020181
S21400057080930101FE016491B2DFF7016491AFDF61
S214000580892B19F4C092030108C0D092030105C05C
S214000590C2DF1093030101C0BEDFA895C9CF8091CA
S2140005A003018350823020F485E080930301B3DF9B
S2140005B082E080930301F894E199FECFE0E0FAE050
S2140005C083E0A89580935700E89507B600FCFDCF1A
S2140005D0E05CFF4FE11590E2F90799F778940895EB
S2140005E0E0E0F0E00994089580E090E087C1FCDF49
S2140005F08F3018F48093000102C01092000186E04C
S21400060080930301789424D1CFCDCF939FEF980F9A
S2140006109E3040F4C82F682F80E090E077D1E4DF6A
S21400062091E0C81390E0892FCF9108959627292F3F
S21400063022952F709227692F70E020E030E0382F47
S21400064026273727CB01982F88279295907F282733
S2140006503927CB0155E0880F991F5A95E1F7822775
S21400066093270895EF92FF921F93CF93DF93CDB712
S214000670DEB764970FB6F894DEBF0FBECDBF382F37
S21400068032953F7090910001391719F03F3009F00C
S214000690D3C0DB01182F8F70109206018F30A1F0A7
S2140006A090910301943049F421E03F3009F020E0B6
S2140006B0BD01EFE1F5E00995BFC0963009F0BCC07A
S2140006C081E080930301B8C0EC918E2F8068898307
S2140006D0442309F4A7C04E2F50E04031510508F0DE
S2140006E0A3C0FA01EF5DFF4F09949295907F809129
S2140006F00301982B9A8320E042E098C09295907F61
S21400070080910301982B9A8390E19B8381E08C83F0
S21400071023E02D8322E12E832AE02F83188626E10C
S21400072029871A861B8625E02C878D872BEF2E8738
S2140007308F8780E8888B198A8A8B9B8B20E043E121
S21400074075C08FEF9FEFE12C2AE0F22EF70164913F
S2140007506DDFFFEFEF1AFF0A2EEFE2162FE1F2062B
S214000760A9F78B839A8320910301223009F057C0A2
S214000770F70164915BDFEFEFFFE1649157DF892BB0
S21400078009F04DC086E08093030149C008DF4CC0E5
S21400079011962C91119730E0322F222712968C91C9
S2140007A01297282BC9019A50823F954108F03AC00B
S2140007B0F894F9013196AB01405F5F4F61E0139604
S2140007C08C91139714967C91149790E0972B0C01BC
S2140007D060935700E8951124129632964A175B07E5
S2140007E071F785E0F90180935700E89507B600FC9D
S2140007F0FDCF789419C0F4DE17C081E006C0809162
S21400080003018350823080F485E0809303010CC09E
S21400081011968C91FADE21E0882339F005C020E09D
S21400082043E004C021E001C020E041E02170BE01A9
S2140008306F5F7F4F812FC9DD64960FB6F894DEBFD9
S2140008400FBECDBFDF91CF911F91FF90EF9008951F
S21400085010BE85E083BF81E089BF81EB82BF109226
S2140008602F0110922E0108951F920F920FB60F922D
S21400087011242F933F934F935F936F937F938F93A0
S2140008809F93AF93BF93EF93FF93AFDC80910301E9
S214000890843019F4E0E2F5E0099580912E019091FC
S2140008A02F01019690932F0180932E01FF91EF91D7
S2140008B0BF91AF919F918F917F916F915F914F9173
S2140008C03F912F910F900FBE0F901F9018951124F7
S2140008D01FBECFEFD1E0DEBFCDBF80E88BBB8FEE73
S2140008E08ABB17BAD89888ED8093710087E481BDDB
S2140008F0A8957DDE13DE80E090E00895E199FECFB6
S2140009009FBB8EBBE09A99278DB30895262FE19959
S214000910FECF9FBB8EBBE09A01970DB2021639F050
S2140009201CBA2DBB0FB6F894E29AE19A0FBE089552
S2088001000000000076
S804000000FB
